:100000000C94B1000C94CE000C94CE000C94CE0055
:100010000C94CE000C94CE000C94CE000C94CE0028
:100020000C94CE000C94CE000C94CE000C94CE0018
:100030000C94CE000C94CE000C94CE000C94CE0008
:100040000C94CE000C94CE000C94CE000C94CE00F8
:100050000C94CE000C94CE000C94CE000C94CE00E8
:100060000C94CE000C94CE0000407A10F35A00A0FD
:10007000724E18090010A5D4E80000E87648170071
:1000800000E40B54020000CA9A3B000000E1F505B1
:10009000000080969800000040420F000000A086FB
:1000A00001000000102700000000E803000000002D
:1000B0006400000000000A000000000001000000D1
:1000C00000002C76D888DC674F0823DFC1DFAE59EB
:1000D000E1B1B796E5E3E453C63AE651997696E87E
:1000E000E6C28426EB898C9B62ED407C6FFCEFBC02
:1000F0009C9F40F2BAA56FA5F490055A2AF75C932D
:100100006B6CF9676DC11BFCE0E40D47FEF520E662
:10011000B500D0ED902E0300943577050080841E45
:10012000080000204E0A000000C80C333333330FA0
:10013000986E12831141EF8D2114893BE65516CF3D
:10014000FEE6DB18D1844B381BF77C1D901DA4BB49
:10015000E424203284725E228100C9F124ECA1E5FE
:100160003D2711241FBECFEFD8E0DEBFCDBF11E089
:10017000A0E0B1E0E8E1FCE002C005900D92AC31F6
:10018000B107D9F721E0ACE1B1E001C01D92A53281
:10019000B207E1F70E9449020C940A060C94000091
:1001A0004098389A8FE797E00197F1F700C0000078
:1001B0003898EFEEF0E03197F1F700C0000086B11B
:1001C000EFE8F6E03197F1F700C000008170089584
:1001D0004098389A95E09A95F1F700008111389887
:1001E0008FEE90E00197F1F700C000003898089575
:1001F0004098389A85E08A95F1F7000038989AE49B
:100200009A95F1F700C086B190EF9A95F1F7817059
:100210000895CF93DF93D82FC8E08D2F81700E946F
:10022000E800D695C150C9F7DF91CF910895CF93DB
:10023000DF93D8E0C0E00E94F80020E8829FC00170
:100240001124C695C82BD150B1F78C2FDF91CF91D7
:100250000895CF93F8940E94D0008CEC0E9409017D
:1002600084E40E9409010E94F8008823E1F30E94BF
:10027000D0008CEC0E9409018EEB0E9409010E94C3
:100280001701C82F0E9417017894682F70E0762F0D
:1002900066276C0F711D072E000C880B990B0E94AE
:1002A0008B0220E030E040E85DE30E94C602CF917F
:1002B00008955D9A85E08A95F1F700005D980895AC
:1002C000CF93C82F662311F05F9A01C05F985E98A4
:1002D000549A539A529A509A58985A985B985C98A4
:1002E000CC230CF4589AC6FD5A9AC5FD5B9AC4FDFE
:1002F0005C9A0E94590158985A985B985C98C3FD83
:10030000589AC2FD5A9AC1FD5B9AC0FD5C9A0E9440
:1003100059015C9A5B9A5A9A589ACF91089588230A
:1003200011F05F9A01C05F985E9A54985398529862
:1003300050985D9A85E08A95F1F700004C9B02C0C9
:1003400080E101C080E04B9980624A9980644899BD
:1003500080685D9895E09A95F1F700005D9A95E0C8
:100360009A95F1F700004C9981604B9982604A9907
:100370008460489988605D98089580E00E948F01AC
:100380008823DCF385E18A95F1F7000080E00E9484
:100390008F010895CF93C82F0E94BD0160E08C2F7C
:1003A0000E946001CF910895611104C080580E949D
:1003B000CA01089580540E94CA01089581E00E94F4
:1003C000CA010895CF93C82F0E94BD01CA3049F4D5
:1003D000803410F080E001C080E480580E94CA019F
:1003E00004C061E08C2F0E946001CF910895CF93EB
:1003F000DF93EC012196FC018081882329F00E9483
:10040000E20189918111FBCFDF91CF910895CF93C4
:10041000C82F579A569A559A549A539A529A509A64
:100420008FEF99EF0197F1F700C000005B9A5C9A9B
:100430000E9459018FE19EE40197F1F700C000008E
:100440000E9459018FEF90E00197F1F700C0000082
:100450000E9459018FEF90E00197F1F700C0000072
:100460005C980E9459018FEF90E00197F1F700C06E
:10047000000088E20E94CA0188E00E94CA010E942E
:10048000DE0186E00E94CA018C2F0E94CA01CF9132
:1004900008958AB18E6F8AB98CE00E9407020E948B
:1004A000DE0160E080E00E94D40180E091E00E94E3
:1004B000F70161E080E00E94D40181E191E00E94B7
:1004C000F7010E94290160931C0170931D01809324
:1004D0001E0190931F0100E211E023E045E00E941D
:1004E00084030E94DE0160E080E00E94D40180E08D
:1004F00091E00E94F70161E080E00E94D401C80110
:100500000E94F7018FE39CE90197F1F700C000001A
:10051000D8CFE89409C097FB3EF4909580957095EC
:1005200061957F4F8F4F9F4F9923A9F0F92F96E93F
:10053000BB279395F695879577956795B795F111B4
:10054000F8CFFAF4BB0F11F460FF1BC06F5F7F4F51
:100550008F4F9F4F16C0882311F096E911C0772363
:1005600021F09EE8872F762F05C0662371F096E86C
:10057000862F70E060E02AF09A95660F771F881F3B
:10058000DAF7880F9695879597F908950E94D90212
:100590000C944A030E943C0338F00E94430320F06D
:1005A000952311F00C9433030C94390311240C940B
:1005B0007E030E945B0370F3959FC1F3950F50E09B
:1005C000551F629FF001729FBB27F00DB11D639F05
:1005D000AA27F00DB11DAA1F649F6627B00DA11DAB
:1005E000661F829F2227B00DA11D621F739FB00D51
:1005F000A11D621F839FA00D611D221F749F3327C1
:10060000A00D611D231F849F600D211D822F762F59
:100610006A2F11249F5750409AF0F1F088234AF036
:10062000EE0FFF1FBB1F661F771F881F91505040A2
:10063000A9F79E3F510580F00C9433030C947E0380
:100640005F3FE4F3983ED4F3869577956795B79529
:10065000F795E7959F5FC1F7FE2B880F911D969543
:10066000879597F9089597F99F6780E870E060E0B3
:1006700008959FEF80EC089500240A94161617063B
:1006800018060906089500240A9412161306140683
:1006900005060895092E0394000C11F4882352F0E6
:1006A000BB0F40F4BF2B11F460FF04C06F5F7F4F9E
:1006B0008F4F9F4F089557FD9058440F551F59F085
:1006C0005F3F71F04795880F97FB991F61F09F3F3F
:1006D00079F087950895121613061406551FF2CF68
:1006E0004695F1DF08C0161617061806991FF1CFB8
:1006F00086957105610508940895E894BB276627DF
:100700007727CB0197F90895EF920F931F93CF931B
:10071000DF93E80147FD02C034E001C034E1E42F7B
:10072000440FFF0BF7FF03C0F195E195F109E32EAC
:10073000022F2E2FAE010E94A403CE01DF91CF9194
:100740001F910F91EF9008954F925F926F927F9259
:100750009F92AF92BF92CF92DF92EF92FF920F9350
:100760001F93CF93DF93CDB7DEB729970FB6F894D9
:10077000DEBF0FBECDBF6A01122FB02E2BE32017B4
:1007800020F0FF24F394F00E02C0BCE3FB2E0F2DEB
:1007900027E0AE014F5F5F4F0E943205AC018981B7
:1007A000982F9970913031F0E1FC06C0E0FE06C050
:1007B00090E205C09DE203C09BE201C090E0EE2DF7
:1007C000E07183FF3CC0911102C083E001C084E06E
:1007D000811718F4212F281B01C020E0E1110BC064
:1007E000F601822F30E2882319F031938150FBCF3C
:1007F000C20ED11C20E0992329F0D6019C93F6016A
:1008000031966F01C6010396E2FE0AC03EE4D601AE
:100810003C9341E411964C93119712963C9306C079
:100820003EE6F601308341E641833283FC01322FFC
:1008300040E2332309F442C041933150FACF82FFA2
:1008400044C0911102C083E001C084E0811718F414
:10085000212F281B01C020E0E1110BC0F601822FDF
:1008600030E2882319F031938150FBCFC20ED11CA6
:1008700020E0992329F0D6019C93F60131966F016F
:10088000C6010396E2FE0BC039E4D6013C933EE478
:1008900011963C93119736E412963C9307C039E6C3
:1008A000F60130833EE6318336E63283FC01322F97
:1008B00040E2332319F041933150FBCFFC01E20FAA
:1008C000F11D10828EEF9FEFB7C0F1E0911101C0D2
:1008D000F0E06F2F70E01416150624F49A012F5FD4
:1008E0003F4F02C021E030E0260F371FBB2029F028
:1008F0006B2D70E06F5F7F4F02C060E070E0260FED
:10090000371F612F70E0261737071CF4121B212FA9
:1009100001C020E03E2D387159F4D601322F60E23B
:10092000332319F06D933150FBCFC20ED11C20E060
:10093000FF2331F0D6019C93B6016F5F7F4F6B01AF
:10094000E1110BC0F601922F30E3992319F0319396
:100950009150FBCFC20ED11C20E09F2D940F3A8105
:10096000782F7071A72E84FF03C0313309F49150A2
:10097000191624F4993018F098E001C091E0E42FA2
:10098000852F57FF02C0E0E080E06E2F782FE0E077
:10099000F0E0AEE29A2E3A01691A71082A01461A6D
:1009A000570A0B2D10E01195019511096F3F8FEF3C
:1009B000780729F4D6019C92C60101966C0146176E
:1009C000570784F0661677066CF47F01E40CF51C7B
:1009D000A1E0B0E0AC0FBD1FEA0EFB1ED7011196DF
:1009E000BC9002C090E3B92E615071093196C601E6
:1009F00001967C016017710724F0D601BC926C014E
:100A0000D5CF6417750741F4363320F4353321F41C
:100A1000A11002C081E3B82EF601B082F701822F47
:100A200090E2882319F091938150FBCFF701E20FF8
:100A3000F11D108280E090E029960FB6F894DEBF99
:100A40000FBECDBFDF91CF911F910F91FF90EF901F
:100A5000DF90CF90BF90AF909F907F906F905F900E
:100A60004F900895283008F027E03327DA01990FD6
:100A7000311D87FD916000966105710539F4326082
:100A80002E5F3D9330E32A95E1F708959F3F30F0C4
:100A900080387105610509F03C5F3C5F3D93913002
:100AA00008F08068911DDF93CF931F930F93FF92FF
:100AB000EF92192F987F9695E92F96959695E90FC5
:100AC000FF27EE53FF4F99273327EE24FF24A7017A
:100AD000E70105900894079428F4360FE71EF81EE6
:100AE000491F511D660F771F881F991F0694A1F794
:100AF0000590079428F4E70EF81E491F561FC11DE4
:100B0000770F881F991F661F0694A1F70590079419
:100B100028F4F80E491F561FC71FD11D880F991FB3
:100B2000661F771F0694A1F70590079420F4490FDC
:100B3000561FC71FD81F990F661F771F881F06945F
:100B4000A9F784911095177041F0D695C7955795E0
:100B50004795F794E7941A95C1F7E8E6F0E06894B2
:100B60001590159135916591959105907FE273955A
:100B7000E118F10A430B560BC90BD009C0F7E10C81
:100B8000F11E431F561FC91FD01D7EF4703311F490
:100B90008A95E6CFE894015030F0080F0AF4002758
:100BA000021708F4202F2395022F7A3328F079E3D7
:100BB0007D932A95E9F710C07D932A9589F60694CE
:100BC00097956795379517951794E118F10A430B98
:100BD000560BC90BD00998F023957E9173957A3303
:100BE00008F070E37C932013B8F77E9170617D93D9
:100BF00030F0839571E37D9370E32A95E1F711243A
:100C0000EF90FF900F911F91CF91DF91992787FD72
:080C100090950895F894FFCFC0
:100C18003D3D3D3D2044533138423230203D3D3D3D
:0C0C28000057616974696E672E2E2E0063
:00000001FF
